:020000040800F2
:1000000050040020010100088B0D0008C10A0008FF
:10001000890D000849010008DD0F000800000000FC
:10002000000000000000000000000000AF0D00080C
:100030004B01000800000000AD0D0008B10D0008E4
:100040001B0100081B0100081B0100081B01000820
:100050001B0100081B0100081B0100081B01000810
:100060001B0100081B0100081B0100081B01000800
:100070001B0100081B0100081B0100081B010008F0
:100080001B0100081B0100081B0100081B010008E0
:100090001B0100081B0100081B0100081B010008D0
:1000A0001B0100081B0100081B0100081B010008C0
:1000B0001B0100081B0100081B0100081B010008B0
:1000C0001B0100081B0100081B0100081B010008A0
:1000D0001B0100081B0100081B0100081B01000890
:1000E0001B0100081B0100081B010008DFF80CD0F1
:1000F00000F018F800480047FD0F000850040020E9
:100100000648804706480047FEE7FEE7FEE7FEE7B1
:10011000FEE7FEE7FEE7FEE7FEE7FEE7250E000846
:10012000ED000008064C074D06E0E06840F00103D2
:1001300094E8070098471034AC42F6D3FFF7DAFF93
:100140006810000888100008FEE7704770B5044684
:1001500000F0F2F80546601C02D004480078044420
:1001600000F0EAF8401BA042FAD370BD0000002066
:100170002DE9F84FDFF890A100220AF1040B144694
:1001800001274FF00F090BF1040E00BF0B6807FAAF
:1001900004F52B40AB4274D1DFF870C14E68A6EB7A
:1001A0000C0866452BD00DDC032E34D005DC36B3AD
:1001B000012E19D0022E2FD11BE0112E16D0122E97
:1001C0002AD119E0B8F5881F19D006DCB8F5803FB0
:1001D00015D0B8F5801F1FD111E0B8F5001F0ED063
:1001E000B8F5041F18D10AE0CA6815E0CA68121DE4
:1001F00012E0CA6808320FE0CA680C320CE08A6864
:100200002AB1012A4FF0080203D0456104E004221C
:1002100002E0056100E00022FF2B01D8064601E064
:1002200000F104064FEA840501D9A5F12005D6F8AE
:1002300000C009FA05F82CEA080C02FA05F54CEAA8
:10024000050CC6F800C04D68ED0057D5304DAE69BD
:1002500046F00106AE61AD6924F0030605F0010524
:1002600000952C4D06EB050CDCF80850A6074FEA6C
:10027000167809FA08F6B543274EB04202D1002697
:1002800010E03BE0254EB04201D101260AE0244EA9
:10029000B04201D1022605E0224EB04201D1032630
:1002A00000E0042606FA08F62E43CCF808604D68F4
:1002B000DAF80060ED03554601D51E4300E09E4389
:1002C0002E604D68DBF80060AD035D4601D51E432E
:1002D00000E09E432E604D68DEF80060ED0275463A
:1002E00001D51E4300E09E432E604D68AD020E4DC9
:1002F0002E6801D51E4300E09E432E60641C102C26
:10030000FFF444AFBDE8F88F000401400000111075
:10031000001002400000014000080140000C0140B4
:1003200000100140001401400C0401400AB10161B9
:1003300070470904FBE7000001488068704700002F
:1003400000000020024881680278114481607047F3
:1003500000000020074810B5016841F0100101605D
:10036000032000F091F8002000F006F800F024F8D7
:10037000002010BD0020024070B50D4D04464FF422
:100380007A712878B1FBF0F00A490968B1FBF0F006
:1003900000F021FB48B9102C07D200222146501E44
:1003A00000F052F800206C6070BD012070BD0000AC
:1003B000000000200C000020214808B5816941F0B0
:1003C00001018161816901F001010091C16941F080
:1003D0008051C161C06900F080500090032000F09E
:1003E00053F8002211466FF00B0000F02DF80022A8
:1003F00011466FF00A0000F027F8002211466FF056
:10040000090000F021F800221146501F00F01CF8EE
:1004100000221146101F00F017F800221146901E0E
:1004200000F012F800221146501E00F00DF80548A9
:10043000416821F0E06141F00071416008BD0000B9
:100440000010024000000140F0B40E4B1B680C4647
:10045000C3F30223C3F10705042D00D90425191D98
:10046000072901D2002300E0DB1E012606FA05F170
:10047000491E214099409E40761E16403143F0BCF3
:1004800000F084BC0CED00E0064900F007020868AB
:100490004FF6FF03184040EA0220034A1043086069
:1004A000704700000CED00E00000FA052DE9F04770
:1004B000DFF83C8105460E46D8F8000000F0070042
:1004C000B0420CD2D8F8001021F007013143C8F82F
:1004D0000010D8F8000000F00700B04263D128787F
:1004E000444C800705D56068A96820F0F0000843F7
:1004F00060602878C00745D06868012816D0216858
:10050000022816D0890700294DDA616821F003011D
:1005100001436160FFF710FF6968074641F28830C8
:1005200001290FD00229814619D027E021688903CB
:10053000E9E78901E7E700BFFFF7FEFEC11B494578
:1005400001D918E081466068C0F381000128F3D129
:1005500018E000BFFFF7F0FEC11B49450BD86068EB
:10056000C0F381000228F5D10CE000BFFFF7E4FEE4
:10057000C11B494502D90320BDE8F087606810F02F
:100580000C0FF3D1D8F80010404601F00701B1423A
:100590000BD9016821F0070131430160006800F0C8
:1005A0000700B04201D00120E6E72878400705D5D2
:1005B0006068E96820F4E06008436060287800071C
:1005C00006D56068296920F4605040EAC100606087
:1005D00000F03CF86168084AC1F30311515CC8405F
:1005E000064908600020FFF7C7FE0020C4E70000AE
:1005F0000020024000100240501000080C000020B3
:1006000001480068704700000C00002004480549BC
:1006100000684968044AC1F30221515CC840704730
:100620000C0000200010024060100008044805493A
:1006300000684968044AC1F3C221515CC840704750
:100640000C000020001002406010000812A185B0CC
:100650000FC98DE80F0014A0144A00680490516877
:10066000134801F00C03042B10D0082B0ED1C1F35A
:100670008343C9031DF803000AD5516804AAC1F3D6
:100680004041515C0A4A5043B0FBF1F005B070475D
:1006900008494843FAE70000020304050607080971
:1006A0000A0B0C0D0E0F101001020000001002408A
:1006B00000127A0000093D002DE9F84F0446007849
:1006C000B94DC00748D06868C0F38100012807D041
:1006D0006868C0F38100022809D16868C00306D5A4
:1006E0002868800338D5606800286FD034E06068DF
:1006F000B0F5803F0BD010B1B0F5A02F11D0286815
:1007000020F480302860286820F4802002E02868E7
:1007100040F480302860606888B1FFF70DFE06461F
:1007200009E0286840F480202860F0E7FFF704FE25
:10073000801B642875D828688003F7D50CE0FFF784
:10074000FBFD064605E000BFFFF7F6FD801B6428B1
:10075000F0D828688003F7D42078944E80074FF0B3
:1007600001094FF000083BD5686810F00C0F07D066
:100770006868C0F38100022809D16868C00306D404
:100780002868800714D5206901281FD110E020694E
:10079000B0B1C6F80090FFF7CFFD074605E000BFF7
:1007A000FFF7CAFDC01B0228C4D828688007F7D508
:1007B0002868616920F0F80040EAC10028600FE075
:1007C000C6F80080FFF7B8FD074606E0E9E000BF85
:1007D000FFF7B2FDC01B022823D828688007F7D492
:1007E000207800072CD57248A169D9B1C0F80090D3
:1007F000FFF7A2FD074604E0FFF79EFDC01B02289D
:100800000FD8686A8007F7D56A484FF4FA51006834
:10081000B0FBF1F0009000BF0098411E0091FAD2A9
:100820000EE080E0C0F80080FFF786FD074604E098
:10083000FFF782FDC01B022875D8686A8007F7D4CD
:100840002078400760D5E8690027C00008D4E8692F
:1008500040F08050E861E869012700F08050009086
:1008600055480168C90513D40168834641F4807175
:100870000160FFF761FD824606E000BFFFF75CFD07
:10088000A0EB0A0064284ED8DBF80000C005F5D5BF
:10089000E06801280AD008B1052813D0286A20F0A2
:1008A00001002862286A20F0040002E0286A40F073
:1008B00001002862E06841F2883B98B1FFF73CFDF7
:1008C00082460BE0286A40F004002862EEE700BF91
:1008D000FFF732FDA0EB0A0159455AD8286A800774
:1008E000F6D50CE0FFF728FD824605E0FFF724FD72
:1008F000A0EB0A0159454CD8286A8007F6D41FB1ED
:10090000E86920F08050E861E06988B36968C1F364
:100910008101022945D00228C6F8608004D0FFF783
:100920000BFD044638E034E0FFF706FD074604E01F
:10093000FFF702FDC01B02282BD828688001F7D4DE
:10094000206AB0F5803F05D16868A16820F40030C6
:1009500008436860D4E908010843696821F4741108
:1009600008436860C6F86090FFF7E6FC044606E0BE
:1009700015E000BFFFF7E0FC001B022809D828683B
:100980008001F7D50BE000BFFFF7D6FC001B022863
:1009900002D90320BDE8F88F28688001F4D4002034
:1009A000F8E70120F6E70000001002400000424294
:1009B000800442420C000020007000404FF0E02113
:1009C0000428086903D020F004000861704740F053
:1009D0000400FAE7704710B5401EB0F1807F01D3E4
:1009E000012010BD4FF0E02460610F21601700F07E
:1009F000CDF90020A06107202061002010BD10B5B6
:100A0000FFF7E8FF10BD70B5040004D094F839007A
:100A1000002510B106E0012070BD84F83850204652
:100A200000F022F8242084F839002068C16821F4FD
:100A30000051C160204600F019FA2068016921F4D4
:100A4000904101612068416921F02A0141612068DB
:100A5000C16841F40051C160E563202084F8390089
:100A600084F83A00002070BD10B50068114986B0C6
:100A700088421CD11048C16941F40031C161C0698C
:100A80000E4C00F4003004900420009002200190ED
:100A90000320039069462046FFF76AFB00210820E7
:100AA000CDE90001029169462046FFF761FB06B0DF
:100AB00010BD00000044004000100240000801404A
:100AC000FEE710B5012000F0DBF8BDE81040012082
:100AD000FFF73CBB10B50021012000F061F816A023
:100AE00000F0A2F84FF47A742046FFF72FFBFFF7CF
:100AF000E8FF0021012000F053F813A000F094F863
:100B00002046FFF723FBFFF7DCFF0021012000F068
:100B100047F811A000F088F80121084600F040F8DD
:100B200011A000F081F801210D2000F039F8BDE896
:100B300010400FA000F078B8424D45204465706128
:100B400072746D656E740000456C656374726F73CA
:100B500070696E6E696E6700202020436F6E74723C
:100B60006F6C6C657200000053706565643A00003C
:100B700052706D0010B5094C012211462046FFF756
:100B8000D5FB0120FFF7E2FA002201212046FFF702
:100B9000CDFBBDE810400120FFF7D8BA00080140A6
:100BA00019B1C030C0B200F06BB88030FAE7000075
:100BB00010B5002000F044F8002202210F48FFF792
:100BC000B5FB032000F03CF8FFF7D4FFFFF7D2FF9E
:100BD000FFF7D0FF022000F033F8FFF7CBFF28200B
:100BE00000F04EF80E2000F04BF8062000F048F818
:100BF000BDE81040012000F043B8000000080140AB
:100C000070B5084C0546012202212046FFF78EFBF5
:100C1000284600F035F82046BDE870400022022149
:100C2000FFF784BB0008014010B5044603E000BF95
:100C3000FFF7E6FF641C20780028F9D110BD000002
:100C400070B50E4D044600F0010210212846FFF752
:100C50006DFBC4F3400280212846FFF767FBC4F315
:100C6000800269152846FFF761FBC4F3C00229150D
:100C70002846BDE87040FFF759BB0000000801405E
:100C800010B504460009FFF7DBFFFFF773FF2046AE
:100C9000FFF7D6FFBDE81040FFF76CBF2DE9F0432A
:100CA000354885B0816941F010018161816901F0A9
:100CB00010010491816941F020018161816901F095
:100CC00020010491816941F004018161816901F091
:100CD00004010491816941F0080181618069274F15
:100CE00000F008004FF400540490002221463846DA
:100CF000FFF71CFBDFF8888000224FF44661404676
:100D0000FFF714FBDFF87C90002220214846FFF714
:100D10000DFB0125CDE9004500240226CDE9024660
:100D200069463846FFF724FA40F6FF60CDE9000532
:100D3000CDE9024669464046FFF71AFA4FF4704083
:100D4000CDE90004694648460294FFF711FA2802EB
:100D5000CDE90004694640460294FFF709FA2020D5
:100D6000CDE90005CDE9024669464846FFF700FA9D
:100D700005B0BDE8F0830000001002400010014003
:100D800000080140000C0140FEE770470907090E0A
:100D9000002806DA00F00F0000F1E02080F8141DB2
:100DA000704700F1E02080F80014704770477047EA
:100DB00010B5FFF7C7FABDE81040FFF720BE30B509
:100DC0008FB00121080400240491CDE90010CDE981
:100DD00008040294022507956846FFF76DFC00B1F0
:100DE000FEE70F20CDE90A0580200C90C000CDE978
:100DF0000D0400210AA8FFF759FB00B1FEE7FFF739
:100E0000FFFB4FF47A71B0FBF1F0FFF7E4FD042033
:100E1000FFF7D4FD00221146501EFFF715FB0FB05F
:100E200030BD00000D48016841F0010101604168DA
:100E30000B4A1140416001680A4A11400160016893
:100E400021F480210160416821F4FE0141604FF4EA
:100E50001F0181600449C003086070470010024010
:100E60000000FFF8FFFFF6FE08ED00E02DE9F0417D
:100E7000044600680169E26821F4405111430161B0
:100E80002169A0680843616908432168CA6841F282
:100E90000C639A430243CA6020684169A26921F445
:100EA0004071114341614C492068642532268842D3
:100EB0003CD1FFF7BBFB00EBC00101EB0010616808
:100EC0008900B0FBF1F7FFF7B1FB00EBC00101EBCC
:100ED00000106168B0468900B0FBF1F0B0FBF5F09E
:100EE0006FF01801484307EB800106EB0110B0FBDF
:100EF000F5F000F0F006FFF799FB00EBC00101EB05
:100F0000001061688900B0FBF1F0B0FBF5F006EB72
:100F10000016FFF78BFB00EBC00101EB00106168CE
:100F20008900B0FBF1F7FFF781FB3BE0FFF76EFBB9
:100F300000EBC00101EB001061688900B0FBF1F724
:100F4000FFF764FB00EBC00101EB00106168B046E5
:100F50008900B0FBF1F0B0FBF5F06FF018014843E9
:100F600007EB800106EB0110B0FBF5F000F0F00696
:100F7000FFF74CFB00EBC00101EB0010616889003A
:100F8000B0FBF1F0B0FBF5F006EB0016FFF73EFB0F
:100F900000EBC00101EB001061688900B0FBF1F7C4
:100FA000FFF734FB00EBC00101EB00106168890022
:100FB000B0FBF1F0B0FBF5F06FF01801484307EB20
:100FC000800108EB0110B0FBF5F0216800F00F0084
:100FD00030448860BDE8F08100380140FEE702E05F
:100FE00008C8121F08C1002AFAD1704770470020B4
:100FF00001E001C1121F002AFBD17047FFF7AAF9D7
:10100000FFF7DDFEFFF74AFE0F480E490C22016094
:101010004FF41651416000218160C160C0E90412A3
:101020008161C161FFF7EFFC00B1FEE701224021C1
:101030000648FFF77BF9FFF7BBFDFFF742FDFFF71F
:1010400049FDFEE700440040100000200008014078
:101050000000000000000000010203040607080968
:1010600000000000010203048810000800000020B6
:1010700010000000DE0F000898100008100000208B
:1010800040040000EE0F0008010000001000000006
:081090000000000000A24A0468
:04000005080000ED02
:00000001FF
