:020000040800F2
:10000000E804002001010008AF0F0008450E0008B9
:10001000AD0F000849010008C913000800000000E6
:10002000000000000000000000000000D30F0008E6
:100030004B01000800000000D10F0008D50F000898
:100040001B0100081B0100081B0100081B01000820
:100050001B0100081B0100081B0100081B01000810
:100060001B0100081B0100081B0100081B01000800
:100070001B0100081B0100081B0100081B010008F0
:100080001B0100081B0100081B0100081B010008E0
:100090001B0100081B0100081B0100081B010008D0
:1000A0001B0100081B0100081B0100081B010008C0
:1000B0001B0100081B0100081B0100081B010008B0
:1000C0001B0100081B0100081B0100081B010008A0
:1000D0001B0100081B0100081B0100081B01000890
:1000E0001B0100081B0100081B010008DFF80CD0F1
:1000F00000F018F800480047E9130008E804002061
:100100000648804706480047FEE7FEE7FEE7FEE7B1
:10011000FEE7FEE7FEE7FEE7FEE7FEE74910000820
:10012000ED000008064C074D06E0E06840F00103D2
:1001300094E8070098471034AC42F6D3FFF7DAFF93
:10014000D4140008F4140008FEE7704770B50446A4
:1001500000F0FAF80546601C02D004480078044418
:1001600000F0F2F8401BA042FAD370BD000000205E
:100170002DE9F84FDFF890A100220AF1040B144694
:1001800001274FF00F090BF1040E00BF0B6807FAAF
:1001900004F52B40AB4274D1DFF870C14E68A6EB7A
:1001A0000C0866452BD00DDC032E34D005DC36B3AD
:1001B000012E19D0022E2FD11BE0112E16D0122E97
:1001C0002AD119E0B8F5881F19D006DCB8F5803FB0
:1001D00015D0B8F5801F1FD111E0B8F5001F0ED063
:1001E000B8F5041F18D10AE0CA6815E0CA68121DE4
:1001F00012E0CA6808320FE0CA680C320CE08A6864
:100200002AB1012A4FF0080203D0456104E004221C
:1002100002E0056100E00022FF2B01D8064601E064
:1002200000F104064FEA840501D9A5F12005D6F8AE
:1002300000C009FA05F82CEA080C02FA05F54CEAA8
:10024000050CC6F800C04D68ED0057D5304DAE69BD
:1002500046F00106AE61AD6924F0030605F0010524
:1002600000952C4D06EB050CDCF80850A6074FEA6C
:10027000167809FA08F6B543274EB04202D1002697
:1002800010E03BE0254EB04201D101260AE0244EA9
:10029000B04201D1022605E0224EB04201D1032630
:1002A00000E0042606FA08F62E43CCF808604D68F4
:1002B000DAF80060ED03554601D51E4300E09E4389
:1002C0002E604D68DBF80060AD035D4601D51E432E
:1002D00000E09E432E604D68DEF80060ED0275463A
:1002E00001D51E4300E09E432E604D68AD020E4DC9
:1002F0002E6801D51E4300E09E432E60641C102C26
:10030000FFF444AFBDE8F88F000401400000111075
:10031000001002400000014000080140000C0140B4
:1003200000100140001401400C04014080680840A6
:1003300000D001207047C2684A40C26070470AB1CD
:10034000016170470904FBE70148806870470000BD
:100350000000002070B504001BD094F83D0000257B
:1003600020B984F83C50204600F094F8242084F80A
:100370003D002068016821F00101016000F010FAE1
:10038000404A6168914201D83F4900E03F498842B4
:1003900001D2012070BD3E492368B0FBF1F15960E4
:1003A0006368934206D94FF4967359434FF47A73B6
:1003B000B1FBF3F12368491C19626168914210D8BE
:1003C0004900401EB0FBF1F2521CC2F30B02042A9A
:1003D00001D2042022E0B0FBF1F0401CC0F30B007E
:1003E0001CE0A368CBB301EBC10202EB0116421E75
:1003F000B2FBF6F2521C42F48042120536D06BB3C7
:1004000001EBC10202EB0111401EB0FBF1F0401CF8
:10041000C0F30B0040F4804040F400402168C86104
:10042000D4E90701084321680860D4E903100843B0
:1004300021688860D4E9050108432168C860206804
:10044000016841F0010101602564202084F83D002D
:10045000256384F83E50002070BD00E008E001EB09
:100460004106421EB2FBF6F2521CC6E70120D5E758
:1004700001EB4101401EB0FBF1F0401CC0F30B004A
:10048000CAE70000A086010080841E0000093D002C
:1004900040420F0000B500680C4985B0884212D177
:1004A000C020009012200190032003906946084864
:1004B000FFF75EFE0748C16941F40011C161C069E0
:1004C00000F40010049005B000BD0000005400408E
:1004D000000C01400010024002488168027811447B
:1004E0008160704700000020074810B5016841F0A6
:1004F00010010160032000F091F8002000F006F8E0
:1005000000F024F8002010BD0020024070B50D4D11
:1005100004464FF47A712878B1FBF0F00A49096873
:10052000B1FBF0F000F021FB48B9102C07D20022FB
:100530002146501E00F052F800206C6070BD012072
:1005400070BD0000000000200C000020214808B50C
:10055000816941F001018161816901F0010100912E
:10056000C16941F08051C161C06900F080500090C4
:10057000032000F053F8002211466FF00B0000F04A
:100580002DF8002211466FF00A0000F027F8002233
:1005900011466FF0090000F021F800221146501FAB
:1005A00000F01CF800221146101F00F017F800227E
:1005B0001146901E00F012F800221146501E00F065
:1005C0000DF80548416821F0E06141F0007141609B
:1005D00008BD00000010024000000140F0B40E4BC6
:1005E0001B680C46C3F30223C3F10705042D00D991
:1005F0000425191D072901D2002300E0DB1E012676
:1006000006FA05F1491E214099409E40761E16408B
:100610003143F0BC00F0CCBC0CED00E0064900F02A
:10062000070208684FF6FF03184040EA0220034A19
:1006300010430860704700000CED00E00000FA0570
:100640002DE9F047DFF83C8105460E46D8F800005A
:1006500000F00700B0420CD2D8F8001021F00701DA
:100660003143C8F80010D8F8000000F00700B0428D
:1006700063D12878444C800705D56068A96820F0CC
:10068000F000084360602878C00745D068680128FA
:1006900016D02168022816D0890700294DDA616832
:1006A00021F0030101436160FFF74EFE69680746D0
:1006B00041F2883001290FD00229814619D027E064
:1006C00021688903E9E78901E7E700BFFFF73CFEFE
:1006D000C11B494501D918E081466068C0F381001B
:1006E0000128F3D118E000BFFFF72EFEC11B4945DA
:1006F0000BD86068C0F381000228F5D10CE000BF80
:10070000FFF722FEC11B494502D90320BDE8F0874F
:10071000606810F00C0FF3D1D8F80010404601F0DB
:100720000701B1420BD9016821F007013143016093
:10073000006800F00700B04201D00120E6E7287809
:10074000400705D56068E96820F4E0600843606010
:100750002878000706D56068296920F4605040EACF
:10076000C100606000F03CF86168084AC1F3031101
:10077000515CC840064908600020FFF7C7FE002012
:10078000C4E700000020024000100240BC14000832
:100790000C00002001480068704700000C00002099
:1007A0000448054900684968044AC1F30221515CC4
:1007B000C84070470C00002000100240CC14000814
:1007C0000448054900684968044AC1F3C221515CE4
:1007D000C84070470C00002000100240CC140008F4
:1007E00012A185B00FC98DE80F0014A0144A00684B
:1007F00004905168134801F00C03042B10D0082B0F
:100800000ED1C1F38343C9031DF803000AD5516813
:1008100004AAC1F34041515C0A4A5043B0FBF1F0D5
:1008200005B0704708494843FAE700000203040591
:10083000060708090A0B0C0D0E0F1010010200002C
:100840000010024000127A0000093D002DE9F84F27
:1008500004460078B94DC00748D06868C0F38100ED
:10086000012807D06868C0F38100022809D16868B0
:10087000C00306D52868800338D5606800286FD08B
:1008800034E06068B0F5803F0BD010B1B0F5A02F18
:1008900011D0286820F480302860286820F4802057
:1008A00002E0286840F480302860606888B1FFF773
:1008B0004BFD064609E0286840F480202860F0E7F8
:1008C000FFF742FD801B642875D828688003F7D5A0
:1008D0000CE0FFF739FD064605E000BFFFF734FDE9
:1008E000801B6428F0D828688003F7D42078944EC1
:1008F00080074FF001094FF000083BD5686810F001
:100900000C0F07D06868C0F38100022809D168681D
:10091000C00306D42868800714D5206901281FD198
:1009200010E02069B0B1C6F80090FFF70DFD074652
:1009300005E000BFFFF708FDC01B0228C4D82868E7
:100940008007F7D52868616920F0F80040EAC10007
:1009500028600FE0C6F80080FFF7F6FC074606E0C7
:10096000E9E000BFFFF7F0FCC01B022823D828688D
:100970008007F7D4207800072CD57248A169D9B137
:10098000C0F80090FFF7E0FC074604E0FFF7DCFC4E
:10099000C01B02280FD8686A8007F7D56A484FF451
:1009A000FA510068B0FBF1F0009000BF0098411EC2
:1009B0000091FAD20EE080E0C0F80080FFF7C4FC9E
:1009C000074604E0FFF7C0FCC01B022875D8686A20
:1009D0008007F7D42078400760D5E8690027C00079
:1009E00008D4E86940F08050E861E869012700F028
:1009F0008050009055480168C90513D401688346AA
:100A000041F480710160FFF79FFC824606E000BF61
:100A1000FFF79AFCA0EB0A0064284ED8DBF8000030
:100A2000C005F5D5E06801280AD008B1052813D023
:100A3000286A20F001002862286A20F0040002E001
:100A4000286A40F001002862E06841F2883B98B1D2
:100A5000FFF77AFC82460BE0286A40F00400286227
:100A6000EEE700BFFFF770FCA0EB0A0159455AD82A
:100A7000286A8007F6D50CE0FFF766FC824605E0A1
:100A8000FFF762FCA0EB0A0159454CD8286A8007A1
:100A9000F6D41FB1E86920F08050E861E06988B3BE
:100AA0006968C1F38101022945D00228C6F8608037
:100AB00004D0FFF749FC044638E034E0FFF744FC7B
:100AC000074604E0FFF740FCC01B02282BD828682B
:100AD0008001F7D4206AB0F5803F05D16868A1682D
:100AE00020F4003008436860D4E9080108436968CD
:100AF00021F4741108436860C6F86090FFF724FC85
:100B0000044606E015E000BFFFF71EFC001B0228AC
:100B100009D828688001F7D50BE000BFFFF714FC67
:100B2000001B022802D90320BDE8F88F2868800145
:100B3000F4D40020F8E70120F6E70000001002409E
:100B400000004242800442420C000020007000403D
:100B50004FF0E0210428086903D020F00400086168
:100B6000704740F00400FAE7704710B5401EB0F13E
:100B7000807F01D3012010BD4FF0E02460610F2180
:100B8000601700F015FA0020A06107202061002006
:100B900010BD10B5FFF7E8FF10BD30B590F83C2050
:100BA000012A20D0012280F83C20022380F83D3029
:100BB00003685C6824F070045C6003685C680D681E
:100BC0002C435C6003689C6824F080049C6003688C
:100BD0009C6849680C439C6080F83D20002180F8A7
:100BE0003C10084630BD022030BD00001FB5006833
:100BF0000A49884211D120200090022001900390E0
:100C000069460748FFF7B4FA0648416821F4406195
:100C100041F0E06141F4006141601FBD000400400B
:100C2000000C01400000014070B5044690F83C0003
:100C30000D4601280DD0012684F83C60022084F87E
:100C40003D0042B1042A18D0082A2AD00C2A4DD1DE
:100C500039E0022070BD206800F05CFA20688169EC
:100C600041F0080181612068816921F004018161FE
:100C7000206881692A69114311E0206800F072FA46
:100C80002068816941F4006181612068816921F4F3
:100C900080618161206881692A6941EA022181615C
:100CA00024E0206800F08AFA2068C16941F0080158
:100CB000C1612068C16921F00401C1612068C16976
:100CC0002A69114311E0206800F0A4FA2068C16984
:100CD00041F40061C1612068C16921F48061C16192
:100CE0002068C1692A6941EA0221C16184F83D6036
:100CF000002084F83C0070BD10B5040003D094F8C7
:100D00003D0010B107E0012010BD002084F83C0038
:100D1000204600F00DF8022084F83D00211D2068D7
:100D200000F0B6F9012084F83D00002010BD00005D
:100D300008B500680649884208D10648C16941F0F3
:100D40000201C161C06900F00200009008BD00000E
:100D5000000400400010024010B504460068012263
:100D600000F0CCF907492068884203D1416C41F476
:100D7000004141642068016841F0010101600020E8
:100D800010BD0000002C014070B5040004D094F8A0
:100D90003900002510B106E0012070BD84F83850FC
:100DA000204600F023F8242084F839002068C16828
:100DB00021F40051C160204600F04EFA206801691C
:100DC00021F4904101612068416921F02A014161CB
:100DD0002068C16841F40051C160E563202084F8B7
:100DE000390084F83A00002070BD000010B500689A
:100DF000114986B088421CD11048C16941F40031C4
:100E0000C161C0690E4C00F40030049004200090D1
:100E1000022001900320039069462046FFF7A8F9BD
:100E200000210820CDE90001029169462046FFF724
:100E30009FF906B010BD00000044004000100240C1
:100E400000080140FEE700002DE9F0432D4885B081
:100E5000816941F010018161816901F01001049103
:100E6000816941F020018161816901F020010491D3
:100E7000816941F004018161816901F004010491FB
:100E8000816941F0080181618069DFF87C8000F0B0
:100E900008004FF400540490002221464046FFF71A
:100EA0004EFADFF868904FF446670022394648460C
:100EB000FFF745FA0125CDE9004500240226CDE9DA
:100EC000024669464046FFF753F900970396CDE97D
:100ED000015469464846FFF74BF94FF47040CDE99D
:100EE000000469460A480294FFF742F92802CDE956
:100EF0000004694648460294FFF73AF905B0BDE898
:100F0000F083000000100240001001400008014082
:100F1000000C01400B4810B5094901600A494160C5
:100F200000214FF480428160C0E903124161816178
:100F3000C1610162FFF70EFA002800D0FEE710BD84
:100F40000054004010000020A086010010B5164893
:100F50008AB01449016040F237410024C0E901140D
:100F600040F2CF71C0E903148461FFF7C5FE00B100
:100F7000FEE7079407A90C480894FFF70EFE00B19E
:100F8000FEE76020CDE90004029404226946064889
:100F90000494FFF749FE00B1FEE70348FFF726FE81
:100FA0000AB010BD0004004064000020FEE7704756
:100FB0000907090E002806DA00F00F0000F1E02012
:100FC00080F8141D704700F1E02080F8001470478D
:100FD0007047704710B5FFF77FFABDE81040FFF784
:100FE000D8BD30B58FB00121080400240491CDE9AB
:100FF0000010CDE908040294022507956846FFF722
:1010000025FC00B1FEE70F20CDE90A0580200C90F9
:10101000C000CDE90D0400210AA8FFF711FB00B1C3
:10102000FEE7FFF7B7FB4FF47A71B0FBF1F0FFF783
:101030009CFD0420FFF78CFD00221146501EFFF797
:10104000CDFA0FB030BD00000D48016841F001013C
:10105000016041680B4A1140416001680A4A114031
:101060000160016821F480210160416821F4FE01E2
:1010700041604FF41F0181600449C003086070475C
:10108000001002400000FFF8FFFFF6FE08ED00E050
:10109000F0B50268164B174C174D4FF08047984239
:1010A00005D0B84203D0A04201D0A84203D122F01B
:1010B00070064A683243984205D0B84203D0A04235
:1010C00001D0A84203D122F44074CA68224322F01E
:1010D00080044A69224302608A68C2620A688262A6
:1010E000984201D10969016301214161F0BD00000D
:1010F000002C0140000400400008004010B501230E
:10110000046A8B409C430462036A8A40134303626F
:1011100010BD000030B5026A22F001020262026ACC
:101120004368846924F073050C682C4322F002059F
:101130008A682A430A4DA8420BD122F00805CA68E2
:1011400023F440732A434D6922F004021D438B6946
:101150002B434360846149684163026230BD0000F3
:10116000002C014030B5026A22F010020262026ACD
:10117000436884690D6824F4E64444EA05248D68D4
:1011800022F0200242EA05120B4DA8420ED1CD6892
:1011900022F0800242EA05124D6923F4406343EADB
:1011A00085038D6922F0400243EA85034360846130
:1011B00049688163026230BD002C014030B5026A8B
:1011C00022F480720262036A4268C46923F40073E5
:1011D00024F073050C682C438D6843EA05230C4DFD
:1011E000A8420ED1CD6823F4006343EA05234D697C
:1011F00022F4405242EA05128D6923F4806342EAE8
:1012000005124260C4614968C163036230BD0000D9
:10121000002C014030B5026A22F480520262046A56
:101220004268C3690D6823F4E64343EA05238D68E9
:1012300024F4005444EA0534064DA84204D14D6913
:1012400022F4804242EA85124260C3614968016427
:10125000046230BD002C01402DE9F04104460068D5
:101260000169E26821F44051114301612169A068DC
:101270000843616908432168CA6841F20C639A43D4
:101280000243CA6020684169A26921F44071114398
:1012900041614C4920686425322688423CD1FFF7E1
:1012A0008FFA00EBC00101EB001061688900B0FB10
:1012B000F1F7FFF785FA00EBC00101EB0010616860
:1012C000B0468900B0FBF1F0B0FBF5F06FF018010B
:1012D000484307EB800106EB0110B0FBF5F000F08E
:1012E000F006FFF76DFA00EBC00101EB001061683A
:1012F0008900B0FBF1F0B0FBF5F006EB0016FFF74C
:101300005FFA00EBC00101EB001061688900B0FBDF
:10131000F1F7FFF755FA3BE0FFF742FA00EBC001A7
:1013200001EB001061688900B0FBF1F7FFF738FAB4
:1013300000EBC00101EB00106168B0468900B0FB12
:10134000F1F0B0FBF5F06FF01801484307EB8001B6
:1013500006EB0110B0FBF5F000F0F006FFF720FA05
:1013600000EBC00101EB001061688900B0FBF1F0F7
:10137000B0FBF5F006EB0016FFF712FA00EBC00128
:1013800001EB001061688900B0FBF1F7FFF708FA84
:1013900000EBC00101EB001061688900B0FBF1F0C7
:1013A000B0FBF5F06FF01801484307EB800108EB44
:1013B0000110B0FBF5F0216800F00F0030448860A8
:1013C000BDE8F08100380140FEE702E008C8121FC6
:1013D00008C1002AFAD170477047002001E001C11E
:1013E000121F002AFBD17047FFF77EF8FFF7F9FDC7
:1013F000FFF72AFD2D482C490C2201604FF41651AD
:10140000416000218160C160C0E904128161C16155
:10141000FFF7BAFC00B1FEE7FFF798FDFFF77AFD92
:10142000224804214038FFF797FC224C204F4FF40C
:1014300080764FF47A784FF400494FF4804A4FF4A5
:10144000805B651431463846FEF770FF30B9294697
:101450001948FEF770FF4046FEF778FE49462046E1
:10146000FEF764FF18B929461348FEF764FF51469A
:101470002046FEF75BFF18B929460F48FEF75BFFD1
:1014800029462046FEF752FF18B929460A48FEF7BA
:1014900052FF59462046FEF749FF0028D2D129467F
:1014A0000548FEF748FFCDE700440040A4000020B7
:1014B00000080140000C0140001001400000000045
:1014C00000000000010203040607080900000000F4
:1014D00001020304F41400080000002010000000C2
:1014E000CA1300080415000810000020D8040000EA
:1014F000DA130008010000001000000000000000E6
:0415000000A24A04F7
:04000005080000ED02
:00000001FF
